{
  "contractName": "AddressUtilsMock",
  "abi": [
    {
      "constant": true,
      "inputs": [
        {
          "internalType": "address",
          "name": "_addr",
          "type": "address"
        }
      ],
      "name": "isContract",
      "outputs": [
        {
          "internalType": "bool",
          "name": "addressCheck",
          "type": "bool"
        }
      ],
      "payable": false,
      "stateMutability": "view",
      "type": "function"
    }
  ],
  "bytecode": "0x608060405234801561001057600080fd5b5061012b806100206000396000f3fe6080604052348015600f57600080fd5b506004361060285760003560e01c80631627905514602d575b600080fd5b606c60048036036020811015604157600080fd5b81019080803573ffffffffffffffffffffffffffffffffffffffff1690602001909291905050506086565b604051808215151515815260200191505060405180910390f35b600060a58273ffffffffffffffffffffffffffffffffffffffff1660ac565b9050919050565b60008060007fc5d2460186f7233c927e7db2dcc703c0e500b653ca82273b7bfad8045d85a47060001b9050833f91506000801b821415801560ed5750808214155b9250505091905056fea265627a7a72315820056429f7dd7444250fbddea519a56facb77cd405c09dca226f96c49306afa68f64736f6c634300050c0032",
  "source": "pragma solidity ^0.5.12;\n\nimport \"../../contracts/utils/address-utils.sol\";\n\ncontract AddressUtilsMock {\n  using AddressUtils for address;\n\n  function isContract(\n    address _addr\n  )\n    external\n    view\n    returns (bool addressCheck)\n  {\n    addressCheck = _addr.isContract();\n  }\n}\n",
  "sourcePath": "/Users/elliotfriedman/Desktop/721escrow/contracts/src/tests/mocks/address-utils-mock.sol",
  "compiler": {
    "name": "solc",
    "version": "0.5.12+commit.7709ece9.Emscripten.clang"
  },
  "schemaVersion": "3.0.20",
  "updatedAt": "2020-01-15T03:07:36.005Z",
  "devdoc": {
    "methods": {}
  },
  "userdoc": {
    "methods": {}
  }
}